{
  "_format": "hh-sol-artifact-1",
  "contractName": "Funding",
  "sourceName": "contracts/Funding.sol",
  "abi": [
    {
      "anonymous": false,
      "inputs": [
        {
          "indexed": true,
          "internalType": "address",
          "name": "from",
          "type": "address"
        },
        {
          "indexed": true,
          "internalType": "address",
          "name": "to",
          "type": "address"
        },
        {
          "indexed": true,
          "internalType": "uint256",
          "name": "tokenId",
          "type": "uint256"
        }
      ],
      "name": "Transfer",
      "type": "event"
    },
    {
      "inputs": [
        {
          "internalType": "uint256",
          "name": "",
          "type": "uint256"
        }
      ],
      "name": "campaigns",
      "outputs": [
        {
          "internalType": "address",
          "name": "owner",
          "type": "address"
        },
        {
          "internalType": "string",
          "name": "title",
          "type": "string"
        },
        {
          "internalType": "string",
          "name": "description",
          "type": "string"
        },
        {
          "internalType": "uint256",
          "name": "target",
          "type": "uint256"
        },
        {
          "internalType": "uint256",
          "name": "deadline",
          "type": "uint256"
        },
        {
          "internalType": "uint256",
          "name": "amountCollected",
          "type": "uint256"
        },
        {
          "internalType": "string",
          "name": "image",
          "type": "string"
        }
      ],
      "stateMutability": "view",
      "type": "function"
    },
    {
      "inputs": [
        {
          "internalType": "address",
          "name": "_owner",
          "type": "address"
        },
        {
          "internalType": "string",
          "name": "_title",
          "type": "string"
        },
        {
          "internalType": "string",
          "name": "_description",
          "type": "string"
        },
        {
          "internalType": "uint256",
          "name": "_target",
          "type": "uint256"
        },
        {
          "internalType": "uint256",
          "name": "_deadline",
          "type": "uint256"
        },
        {
          "internalType": "string",
          "name": "_image",
          "type": "string"
        }
      ],
      "name": "createCampaign",
      "outputs": [
        {
          "internalType": "uint256",
          "name": "",
          "type": "uint256"
        }
      ],
      "stateMutability": "nonpayable",
      "type": "function"
    },
    {
      "inputs": [
        {
          "internalType": "uint256",
          "name": "_id",
          "type": "uint256"
        },
        {
          "internalType": "string",
          "name": "_tokenURI",
          "type": "string"
        }
      ],
      "name": "donateToCampaign",
      "outputs": [],
      "stateMutability": "payable",
      "type": "function"
    },
    {
      "inputs": [],
      "name": "getCampaigns",
      "outputs": [
        {
          "components": [
            {
              "internalType": "address",
              "name": "owner",
              "type": "address"
            },
            {
              "internalType": "string",
              "name": "title",
              "type": "string"
            },
            {
              "internalType": "string",
              "name": "description",
              "type": "string"
            },
            {
              "internalType": "uint256",
              "name": "target",
              "type": "uint256"
            },
            {
              "internalType": "uint256",
              "name": "deadline",
              "type": "uint256"
            },
            {
              "internalType": "uint256",
              "name": "amountCollected",
              "type": "uint256"
            },
            {
              "internalType": "string",
              "name": "image",
              "type": "string"
            },
            {
              "internalType": "address[]",
              "name": "donators",
              "type": "address[]"
            },
            {
              "internalType": "uint256[]",
              "name": "donations",
              "type": "uint256[]"
            }
          ],
          "internalType": "struct Funding.Campaign[]",
          "name": "",
          "type": "tuple[]"
        }
      ],
      "stateMutability": "view",
      "type": "function"
    },
    {
      "inputs": [
        {
          "internalType": "uint256",
          "name": "_id",
          "type": "uint256"
        }
      ],
      "name": "getDonators",
      "outputs": [
        {
          "internalType": "address[]",
          "name": "",
          "type": "address[]"
        },
        {
          "internalType": "uint256[]",
          "name": "",
          "type": "uint256[]"
        }
      ],
      "stateMutability": "view",
      "type": "function"
    },
    {
      "inputs": [
        {
          "internalType": "address",
          "name": "_donor",
          "type": "address"
        }
      ],
      "name": "getMyCertificates",
      "outputs": [
        {
          "internalType": "uint256[]",
          "name": "",
          "type": "uint256[]"
        }
      ],
      "stateMutability": "view",
      "type": "function"
    },
    {
      "inputs": [
        {
          "internalType": "uint256",
          "name": "_tokenId",
          "type": "uint256"
        }
      ],
      "name": "getTokenURI",
      "outputs": [
        {
          "internalType": "string",
          "name": "",
          "type": "string"
        }
      ],
      "stateMutability": "view",
      "type": "function"
    },
    {
      "inputs": [],
      "name": "name",
      "outputs": [
        {
          "internalType": "string",
          "name": "",
          "type": "string"
        }
      ],
      "stateMutability": "view",
      "type": "function"
    },
    {
      "inputs": [],
      "name": "numberOfCampaigns",
      "outputs": [
        {
          "internalType": "uint256",
          "name": "",
          "type": "uint256"
        }
      ],
      "stateMutability": "view",
      "type": "function"
    },
    {
      "inputs": [
        {
          "internalType": "address",
          "name": "",
          "type": "address"
        },
        {
          "internalType": "uint256",
          "name": "",
          "type": "uint256"
        }
      ],
      "name": "ownedTokens",
      "outputs": [
        {
          "internalType": "uint256",
          "name": "",
          "type": "uint256"
        }
      ],
      "stateMutability": "view",
      "type": "function"
    },
    {
      "inputs": [
        {
          "internalType": "uint256",
          "name": "",
          "type": "uint256"
        }
      ],
      "name": "ownerOf",
      "outputs": [
        {
          "internalType": "address",
          "name": "",
          "type": "address"
        }
      ],
      "stateMutability": "view",
      "type": "function"
    },
    {
      "inputs": [],
      "name": "symbol",
      "outputs": [
        {
          "internalType": "string",
          "name": "",
          "type": "string"
        }
      ],
      "stateMutability": "view",
      "type": "function"
    },
    {
      "inputs": [],
      "name": "tokenIdCounter",
      "outputs": [
        {
          "internalType": "uint256",
          "name": "",
          "type": "uint256"
        }
      ],
      "stateMutability": "view",
      "type": "function"
    },
    {
      "inputs": [
        {
          "internalType": "uint256",
          "name": "",
          "type": "uint256"
        }
      ],
      "name": "tokenURIs",
      "outputs": [
        {
          "internalType": "string",
          "name": "",
          "type": "string"
        }
      ],
      "stateMutability": "view",
      "type": "function"
    }
  ],
  "bytecode": "0x60806040526040518060400160405280601381526020017f446f6e6174696f6e4365727469666963617465000000000000000000000000008152506002908161004891906102f0565b506040518060400160405280600481526020017f44435254000000000000000000000000000000000000000000000000000000008152506003908161008d91906102f0565b5034801561009a57600080fd5b506103c2565b600081519050919050565b7f4e487b7100000000000000000000000000000000000000000000000000000000600052604160045260246000fd5b7f4e487b7100000000000000000000000000000000000000000000000000000000600052602260045260246000fd5b6000600282049050600182168061012157607f821691505b602082108103610134576101336100da565b5b50919050565b60008190508160005260206000209050919050565b60006020601f8301049050919050565b600082821b905092915050565b60006008830261019c7fffffffffffffffffffffffffffffffffffffffffffffffffffffffffffffffff8261015f565b6101a6868361015f565b95508019841693508086168417925050509392505050565b6000819050919050565b6000819050919050565b60006101ed6101e86101e3846101be565b6101c8565b6101be565b9050919050565b6000819050919050565b610207836101d2565b61021b610213826101f4565b84845461016c565b825550505050565b600090565b610230610223565b61023b8184846101fe565b505050565b5b8181101561025f57610254600082610228565b600181019050610241565b5050565b601f8211156102a4576102758161013a565b61027e8461014f565b8101602085101561028d578190505b6102a16102998561014f565b830182610240565b50505b505050565b600082821c905092915050565b60006102c7600019846008026102a9565b1980831691505092915050565b60006102e083836102b6565b9150826002028217905092915050565b6102f9826100a0565b67ffffffffffffffff811115610312576103116100ab565b5b61031c8254610109565b610327828285610263565b600060209050601f83116001811461035a5760008415610348578287015190505b61035285826102d4565b8655506103ba565b601f1984166103688661013a565b60005b828110156103905784890151825560018201915060208501945060208101905061036b565b868310156103ad57848901516103a9601f8916826102b6565b8355505b6001600288020188555050505b505050505050565b612327806103d16000396000f3fe6080604052600436106100dd5760003560e01c80636c8b703f1161007f5780639943e3a1116100595780639943e3a1146102e2578063a6b036331461031f578063e149f0361461034a578063f99cdd5314610387576100dd565b80636c8b703f1461024f57806395d89b411461028c57806398bdf6f5146102b7576100dd565b8063141961bc116100bb578063141961bc146101765780633bb3a24d146101b957806342339096146101f65780636352211e14610212576100dd565b806306fdde03146100e257806307ca140d1461010d5780630fa91fa914610138575b600080fd5b3480156100ee57600080fd5b506100f76103c4565b604051610104919061139f565b60405180910390f35b34801561011957600080fd5b50610122610452565b60405161012f91906113da565b60405180910390f35b34801561014457600080fd5b5061015f600480360381019061015a9190611435565b610458565b60405161016d929190611610565b60405180910390f35b34801561018257600080fd5b5061019d60048036038101906101989190611435565b610568565b6040516101b09796959493929190611656565b60405180910390f35b3480156101c557600080fd5b506101e060048036038101906101db9190611435565b610762565b6040516101ed919061139f565b60405180910390f35b610210600480360381019061020b919061180f565b610807565b005b34801561021e57600080fd5b5061023960048036038101906102349190611435565b610a37565b604051610246919061186b565b60405180910390f35b34801561025b57600080fd5b5061027660048036038101906102719190611435565b610a6a565b604051610283919061139f565b60405180910390f35b34801561029857600080fd5b506102a1610b0a565b6040516102ae919061139f565b60405180910390f35b3480156102c357600080fd5b506102cc610b98565b6040516102d991906113da565b60405180910390f35b3480156102ee57600080fd5b50610309600480360381019061030491906118b2565b610b9e565b60405161031691906113da565b60405180910390f35b34801561032b57600080fd5b50610334610cc2565b6040516103419190611c5e565b60405180910390f35b34801561035657600080fd5b50610371600480360381019061036c9190611c80565b61108c565b60405161037e91906113da565b60405180910390f35b34801561039357600080fd5b506103ae60048036038101906103a99190611cc0565b6110bd565b6040516103bb9190611ced565b60405180910390f35b600280546103d190611d3e565b80601f01602080910402602001604051908101604052809291908181526020018280546103fd90611d3e565b801561044a5780601f1061041f5761010080835404028352916020019161044a565b820191906000526020600020905b81548152906001019060200180831161042d57829003601f168201915b505050505081565b60015481565b6060806000808481526020019081526020016000206007016000808581526020019081526020016000206008018180548060200260200160405190810160405280929190818152602001828054801561050657602002820191906000526020600020905b8160009054906101000a900473ffffffffffffffffffffffffffffffffffffffff1673ffffffffffffffffffffffffffffffffffffffff16815260200190600101908083116104bc575b505050505091508080548060200260200160405190810160405280929190818152602001828054801561055857602002820191906000526020600020905b815481526020019060010190808311610544575b5050505050905091509150915091565b60006020528060005260406000206000915090508060000160009054906101000a900473ffffffffffffffffffffffffffffffffffffffff16908060010180546105b190611d3e565b80601f01602080910402602001604051908101604052809291908181526020018280546105dd90611d3e565b801561062a5780601f106105ff5761010080835404028352916020019161062a565b820191906000526020600020905b81548152906001019060200180831161060d57829003601f168201915b50505050509080600201805461063f90611d3e565b80601f016020809104026020016040519081016040528092919081815260200182805461066b90611d3e565b80156106b85780601f1061068d576101008083540402835291602001916106b8565b820191906000526020600020905b81548152906001019060200180831161069b57829003601f168201915b5050505050908060030154908060040154908060050154908060060180546106df90611d3e565b80601f016020809104026020016040519081016040528092919081815260200182805461070b90611d3e565b80156107585780601f1061072d57610100808354040283529160200191610758565b820191906000526020600020905b81548152906001019060200180831161073b57829003601f168201915b5050505050905087565b606060076000838152602001908152602001600020805461078290611d3e565b80601f01602080910402602001604051908101604052809291908181526020018280546107ae90611d3e565b80156107fb5780601f106107d0576101008083540402835291602001916107fb565b820191906000526020600020905b8154815290600101906020018083116107de57829003601f168201915b50505050509050919050565b60003490506000806000858152602001908152602001600020905080600401544210610868576040517f08c379a000000000000000000000000000000000000000000000000000000000815260040161085f90611dbb565b60405180910390fd5b600082116108ab576040517f08c379a00000000000000000000000000000000000000000000000000000000081526004016108a290611e27565b60405180910390fd5b80600701339080600181540180825580915050600190039060005260206000200160009091909190916101000a81548173ffffffffffffffffffffffffffffffffffffffff021916908373ffffffffffffffffffffffffffffffffffffffff1602179055508060080182908060018154018082558091505060019003906000526020600020016000909190919091505560008160000160009054906101000a900473ffffffffffffffffffffffffffffffffffffffff1673ffffffffffffffffffffffffffffffffffffffff168360405161098590611e78565b60006040518083038185875af1925050503d80600081146109c2576040519150601f19603f3d011682016040523d82523d6000602084013e6109c7565b606091505b5050905080610a0b576040517f08c379a0000000000000000000000000000000000000000000000000000000008152600401610a0290611ed9565b60405180910390fd5b82826005016000828254610a1f9190611f28565b92505081905550610a303385611154565b5050505050565b60056020528060005260406000206000915054906101000a900473ffffffffffffffffffffffffffffffffffffffff1681565b60076020528060005260406000206000915090508054610a8990611d3e565b80601f0160208091040260200160405190810160405280929190818152602001828054610ab590611d3e565b8015610b025780601f10610ad757610100808354040283529160200191610b02565b820191906000526020600020905b815481529060010190602001808311610ae557829003601f168201915b505050505081565b60038054610b1790611d3e565b80601f0160208091040260200160405190810160405280929190818152602001828054610b4390611d3e565b8015610b905780601f10610b6557610100808354040283529160200191610b90565b820191906000526020600020905b815481529060010190602001808311610b7357829003601f168201915b505050505081565b60045481565b6000428311610be2576040517f08c379a0000000000000000000000000000000000000000000000000000000008152600401610bd990611fa8565b60405180910390fd5b600080600060015481526020019081526020016000209050878160000160006101000a81548173ffffffffffffffffffffffffffffffffffffffff021916908373ffffffffffffffffffffffffffffffffffffffff16021790555086816001019081610c4e9190612174565b5085816002019081610c609190612174565b508481600301819055508381600401819055506000816005018190555082816006019081610c8e9190612174565b5060016000815480929190610ca290612246565b919050555060018054610cb5919061228e565b9150509695505050505050565b6060600060015467ffffffffffffffff811115610ce257610ce16116e4565b5b604051908082528060200260200182016040528015610d1b57816020015b610d086112ad565b815260200190600190039081610d005790505b50905060005b60015481101561108457600080828152602001908152602001600020604051806101200160405290816000820160009054906101000a900473ffffffffffffffffffffffffffffffffffffffff1673ffffffffffffffffffffffffffffffffffffffff1673ffffffffffffffffffffffffffffffffffffffff168152602001600182018054610daf90611d3e565b80601f0160208091040260200160405190810160405280929190818152602001828054610ddb90611d3e565b8015610e285780601f10610dfd57610100808354040283529160200191610e28565b820191906000526020600020905b815481529060010190602001808311610e0b57829003601f168201915b50505050508152602001600282018054610e4190611d3e565b80601f0160208091040260200160405190810160405280929190818152602001828054610e6d90611d3e565b8015610eba5780601f10610e8f57610100808354040283529160200191610eba565b820191906000526020600020905b815481529060010190602001808311610e9d57829003601f168201915b50505050508152602001600382015481526020016004820154815260200160058201548152602001600682018054610ef190611d3e565b80601f0160208091040260200160405190810160405280929190818152602001828054610f1d90611d3e565b8015610f6a5780601f10610f3f57610100808354040283529160200191610f6a565b820191906000526020600020905b815481529060010190602001808311610f4d57829003601f168201915b5050505050815260200160078201805480602002602001604051908101604052809291908181526020018280548015610ff857602002820191906000526020600020905b8160009054906101000a900473ffffffffffffffffffffffffffffffffffffffff1673ffffffffffffffffffffffffffffffffffffffff1681526020019060010190808311610fae575b505050505081526020016008820180548060200260200160405190810160405280929190818152602001828054801561105057602002820191906000526020600020905b81548152602001906001019080831161103c575b50505050508152505082828151811061106c5761106b6122c2565b5b60200260200101819052508080600101915050610d21565b508091505090565b600660205281600052604060002081815481106110a857600080fd5b90600052602060002001600091509150505481565b6060600660008373ffffffffffffffffffffffffffffffffffffffff1673ffffffffffffffffffffffffffffffffffffffff16815260200190815260200160002080548060200260200160405190810160405280929190818152602001828054801561114857602002820191906000526020600020905b815481526020019060010190808311611134575b50505050509050919050565b60006004549050826005600083815260200190815260200160002060006101000a81548173ffffffffffffffffffffffffffffffffffffffff021916908373ffffffffffffffffffffffffffffffffffffffff160217905550816007600083815260200190815260200160002090816111cd9190612174565b50600660008473ffffffffffffffffffffffffffffffffffffffff1673ffffffffffffffffffffffffffffffffffffffff168152602001908152602001600020819080600181540180825580915050600190039060005260206000200160009091909190915055808373ffffffffffffffffffffffffffffffffffffffff16600073ffffffffffffffffffffffffffffffffffffffff167fddf252ad1be2c89b69c2b068fc378daa952ba7f163c4a11628f55a4df523b3ef60405160405180910390a4600460008154809291906112a390612246565b9190505550505050565b604051806101200160405280600073ffffffffffffffffffffffffffffffffffffffff16815260200160608152602001606081526020016000815260200160008152602001600081526020016060815260200160608152602001606081525090565b600081519050919050565b600082825260208201905092915050565b60005b8381101561134957808201518184015260208101905061132e565b60008484015250505050565b6000601f19601f8301169050919050565b60006113718261130f565b61137b818561131a565b935061138b81856020860161132b565b61139481611355565b840191505092915050565b600060208201905081810360008301526113b98184611366565b905092915050565b6000819050919050565b6113d4816113c1565b82525050565b60006020820190506113ef60008301846113cb565b92915050565b6000604051905090565b600080fd5b600080fd5b611412816113c1565b811461141d57600080fd5b50565b60008135905061142f81611409565b92915050565b60006020828403121561144b5761144a6113ff565b5b600061145984828501611420565b91505092915050565b600081519050919050565b600082825260208201905092915050565b6000819050602082019050919050565b600073ffffffffffffffffffffffffffffffffffffffff82169050919050565b60006114b98261148e565b9050919050565b6114c9816114ae565b82525050565b60006114db83836114c0565b60208301905092915050565b6000602082019050919050565b60006114ff82611462565b611509818561146d565b93506115148361147e565b8060005b8381101561154557815161152c88826114cf565b9750611537836114e7565b925050600181019050611518565b5085935050505092915050565b600081519050919050565b600082825260208201905092915050565b6000819050602082019050919050565b611587816113c1565b82525050565b6000611599838361157e565b60208301905092915050565b6000602082019050919050565b60006115bd82611552565b6115c7818561155d565b93506115d28361156e565b8060005b838110156116035781516115ea888261158d565b97506115f5836115a5565b9250506001810190506115d6565b5085935050505092915050565b6000604082019050818103600083015261162a81856114f4565b9050818103602083015261163e81846115b2565b90509392505050565b611650816114ae565b82525050565b600060e08201905061166b600083018a611647565b818103602083015261167d8189611366565b905081810360408301526116918188611366565b90506116a060608301876113cb565b6116ad60808301866113cb565b6116ba60a08301856113cb565b81810360c08301526116cc8184611366565b905098975050505050505050565b600080fd5b600080fd5b7f4e487b7100000000000000000000000000000000000000000000000000000000600052604160045260246000fd5b61171c82611355565b810181811067ffffffffffffffff8211171561173b5761173a6116e4565b5b80604052505050565b600061174e6113f5565b905061175a8282611713565b919050565b600067ffffffffffffffff82111561177a576117796116e4565b5b61178382611355565b9050602081019050919050565b82818337600083830152505050565b60006117b26117ad8461175f565b611744565b9050828152602081018484840111156117ce576117cd6116df565b5b6117d9848285611790565b509392505050565b600082601f8301126117f6576117f56116da565b5b813561180684826020860161179f565b91505092915050565b60008060408385031215611826576118256113ff565b5b600061183485828601611420565b925050602083013567ffffffffffffffff81111561185557611854611404565b5b611861858286016117e1565b9150509250929050565b60006020820190506118806000830184611647565b92915050565b61188f816114ae565b811461189a57600080fd5b50565b6000813590506118ac81611886565b92915050565b60008060008060008060c087890312156118cf576118ce6113ff565b5b60006118dd89828a0161189d565b965050602087013567ffffffffffffffff8111156118fe576118fd611404565b5b61190a89828a016117e1565b955050604087013567ffffffffffffffff81111561192b5761192a611404565b5b61193789828a016117e1565b945050606061194889828a01611420565b935050608061195989828a01611420565b92505060a087013567ffffffffffffffff81111561197a57611979611404565b5b61198689828a016117e1565b9150509295509295509295565b600081519050919050565b600082825260208201905092915050565b6000819050602082019050919050565b600082825260208201905092915050565b60006119db8261130f565b6119e581856119bf565b93506119f581856020860161132b565b6119fe81611355565b840191505092915050565b600082825260208201905092915050565b6000611a2582611462565b611a2f8185611a09565b9350611a3a8361147e565b8060005b83811015611a6b578151611a5288826114cf565b9750611a5d836114e7565b925050600181019050611a3e565b5085935050505092915050565b600082825260208201905092915050565b6000611a9482611552565b611a9e8185611a78565b9350611aa98361156e565b8060005b83811015611ada578151611ac1888261158d565b9750611acc836115a5565b925050600181019050611aad565b5085935050505092915050565b600061012083016000830151611b0060008601826114c0565b5060208301518482036020860152611b1882826119d0565b91505060408301518482036040860152611b3282826119d0565b9150506060830151611b47606086018261157e565b506080830151611b5a608086018261157e565b5060a0830151611b6d60a086018261157e565b5060c083015184820360c0860152611b8582826119d0565b91505060e083015184820360e0860152611b9f8282611a1a565b915050610100830151848203610100860152611bbb8282611a89565b9150508091505092915050565b6000611bd48383611ae7565b905092915050565b6000602082019050919050565b6000611bf482611993565b611bfe818561199e565b935083602082028501611c10856119af565b8060005b85811015611c4c5784840389528151611c2d8582611bc8565b9450611c3883611bdc565b925060208a01995050600181019050611c14565b50829750879550505050505092915050565b60006020820190508181036000830152611c788184611be9565b905092915050565b60008060408385031215611c9757611c966113ff565b5b6000611ca58582860161189d565b9250506020611cb685828601611420565b9150509250929050565b600060208284031215611cd657611cd56113ff565b5b6000611ce48482850161189d565b91505092915050565b60006020820190508181036000830152611d0781846115b2565b905092915050565b7f4e487b7100000000000000000000000000000000000000000000000000000000600052602260045260246000fd5b60006002820490506001821680611d5657607f821691505b602082108103611d6957611d68611d0f565b5b50919050565b7f43616d706169676e20657870697265642e000000000000000000000000000000600082015250565b6000611da560118361131a565b9150611db082611d6f565b602082019050919050565b60006020820190508181036000830152611dd481611d98565b9050919050565b7f446f6e6174696f6e206d7573742062652067726561746572207468616e20302e600082015250565b6000611e1160208361131a565b9150611e1c82611ddb565b602082019050919050565b60006020820190508181036000830152611e4081611e04565b9050919050565b600081905092915050565b50565b6000611e62600083611e47565b9150611e6d82611e52565b600082019050919050565b6000611e8382611e55565b9150819050919050565b7f5472616e73666572206661696c65642e00000000000000000000000000000000600082015250565b6000611ec360108361131a565b9150611ece82611e8d565b602082019050919050565b60006020820190508181036000830152611ef281611eb6565b9050919050565b7f4e487b7100000000000000000000000000000000000000000000000000000000600052601160045260246000fd5b6000611f33826113c1565b9150611f3e836113c1565b9250828201905080821115611f5657611f55611ef9565b5b92915050565b7f446561646c696e65206d75737420626520696e20746865206675747572652e00600082015250565b6000611f92601f8361131a565b9150611f9d82611f5c565b602082019050919050565b60006020820190508181036000830152611fc181611f85565b9050919050565b60008190508160005260206000209050919050565b60006020601f8301049050919050565b600082821b905092915050565b60006008830261202a7fffffffffffffffffffffffffffffffffffffffffffffffffffffffffffffffff82611fed565b6120348683611fed565b95508019841693508086168417925050509392505050565b6000819050919050565b600061207161206c612067846113c1565b61204c565b6113c1565b9050919050565b6000819050919050565b61208b83612056565b61209f61209782612078565b848454611ffa565b825550505050565b600090565b6120b46120a7565b6120bf818484612082565b505050565b5b818110156120e3576120d86000826120ac565b6001810190506120c5565b5050565b601f821115612128576120f981611fc8565b61210284611fdd565b81016020851015612111578190505b61212561211d85611fdd565b8301826120c4565b50505b505050565b600082821c905092915050565b600061214b6000198460080261212d565b1980831691505092915050565b6000612164838361213a565b9150826002028217905092915050565b61217d8261130f565b67ffffffffffffffff811115612196576121956116e4565b5b6121a08254611d3e565b6121ab8282856120e7565b600060209050601f8311600181146121de57600084156121cc578287015190505b6121d68582612158565b86555061223e565b601f1984166121ec86611fc8565b60005b82811015612214578489015182556001820191506020850194506020810190506121ef565b86831015612231578489015161222d601f89168261213a565b8355505b6001600288020188555050505b505050505050565b6000612251826113c1565b91507fffffffffffffffffffffffffffffffffffffffffffffffffffffffffffffffff820361228357612282611ef9565b5b600182019050919050565b6000612299826113c1565b91506122a4836113c1565b92508282039050818111156122bc576122bb611ef9565b5b92915050565b7f4e487b7100000000000000000000000000000000000000000000000000000000600052603260045260246000fdfea2646970667358221220fc308c237aa5443b217839b51864023129ed49f8e98793367f31ec4ec70cb68664736f6c634300081c0033",
  "linkReferences": {},
  "deployedLinkReferences": {}
}